:060000000A128A11DC2F38
:100CF200AA34BB34CC34DD34EE3481308312031396
:100D02009F008030831603139F0008000A128A1185
:100D120099260A128A1183160313111408000A1263
:100D22008A1199260A128A118316031311150800D3
:100D32008316031314199E2E9F2E992E11081F3904
:100D4200031DA42EA52E992E0800F0000A128A1166
:100D520099260A128A1170088312031393000A1249
:100D62008A1199260A128A1108007108F50075077E
:100D7200FE39F60076080A128A11A6260A128A118C
:100D8200F701F801D62E77087207F500750884007E
:100D9200831300080A128A11A6260A128A11013048
:100DA200F7070318F80A0030F8077808803AF500C8
:100DB2007408803A7502031DE02E73087702031C43
:100DC200E32EE42EC42E080028308312031394006D
:100DD2008316031391019401831203132008A400C4
:100DE2002108A5002208A6002308A700023003104C
:100DF200A40DA50DA60DA70DFF3E031DF82E270875
:100E0200F3002608F2002508F1002408F000013062
:100E1200F7003130F6002D30F5000030F4000A12F0
:100E22008A1176270A128A117008FF3E831603136D
:100E32009300871507160800FF30831603138500F9
:100E42008601880183120313880186010A128A111E
:100E52007E260A128A112B30840083120313300873
:100E620083138000840A31088000840A32088000DB
:100E7200840A33088000840A340880000030A3000A
:100E82000130A2008630A100A030A0000A128A110F
:100E9200E5260A128A110A128A1187260A128A1173
:100EA2002730F1002B30F2000530F3000030F4005F
:100EB20000300A128A11B6260A128A110A128A11FF
:100EC20090260A128A11063083120313AA001330E5
:100ED200A900AD30A800A80B6C2FA90B6C2FAA0B90
:100EE2006C2F2C2F0A128A1100280030FC000030CF
:100EF200FB000030FA000030F9007308720471043C
:100F020070040319852F862FD32FFD01FD0A962F1A
:100F12000130F8000310F00DF10DF20DF30DF80B96
:100F22008B2F0130FF007F08FD07F31F992F9A2FA7
:100F3200892F0130F8000310F90DFA0DFB0DFC0D9D
:100F4200F80B9C2F73087702031DB12F72087602EB
:100F5200031DB12F71087502031DB12F70087402B1
:100F6200031CB42FB52FC42F7008F4027108031CA0
:100F7200710FF5027208031C720FF6027308031C4C
:100F8200730FF702791401300310F30CF20CF10C19
:100F9200F00CFF3E031DC52F0130FD02031DD22FB1
:100FA200D32F9A2F7C08F3007B08F2007A08F10015
:100FB2007908F00008000A128A1179260A128A11A9
:100FC200B0000A128A117A260A128A11B1000A1294
:100FD2008A117B260A128A11B2000A128A117C2611
:100FE2000A128A11B3000A128A117D260A128A1184
:0E0FF200B400B501B60183010A128A111D2F49
:02400E007A3FF7
:00000001FF
