:100000000A128A11F62F70087104031908280928AA
:100010003828F401F40A172801300310F00DF10D0F
:10002000FF3E031D0D280130FF007F08F407F11F7C
:100030001A281B280C2871087302031D2128700838
:100040007202031C242825282B287008F20271084C
:10005000031CF303F30201300310F10CF00CFF3E1C
:10006000031D2C280130F402031D372838281B28D3
:100070007308F1007208F0000800FF3083160313C4
:1000800085008601880183120313880186010030F0
:10009000A3000130A2008630A100A030A0000A1603
:1000A0008A15D6240A128A110A168A1526230A12DC
:1000B0008A110A128A15CD200A128A119130FB008A
:1000C0008030FC000A168A1504240A128A1127308F
:1000D00083160313C8000D30C7002530C600C60BB9
:1000E0006F28C70B6F28C80B6F2876280A168A1549
:1000F00099230A128A11003083120313A700A80063
:100100000030A900AA000A168A157B230A128A1158
:10011000A730FB008030FC000A168A1504240A125E
:100120008A11013083120313A7000030A8000030A9
:10013000A900AA000A168A157B230A128A119E308A
:10014000FB008030FC000A168A1504240A128A116A
:10015000273083160313C8000D30C7002530C600B2
:10016000C60BB028C70BB028C80BB028B7280A1692
:100170008A1599230A128A110030F000F1000A163C
:100180008A1579240A128A11710883160313EA006A
:100190007008E900073083160313C7007C30C600DF
:1001A000C60BD028C70BD02800000130F00000306B
:1001B000F1000A168A1579240A128A117108831629
:1001C0000313E8007008E7000030F000F1000A16A1
:1001D0008A1579240A128A11710883120313A70061
:1001E0007008A6000A168A158D250A128A11831234
:1001F0000313290883160313C1008312031328086D
:1002000083160313C00083120313270883160313F6
:10021000BF0083120313260883160313BE000030A9
:10022000C200C3000A168A1156200A128A118316C8
:100230000313C9000130F0000030F1000A168A15DE
:1002400079240A128A11710883120313A700700817
:10025000A6000A168A158D250A128A118312031325
:10026000290883160313C100831203132808831679
:100270000313C00083120313270883160313BF0060
:1002800083120313260883160313BE000130C20035
:100290000030C3000A168A1156200A128A118316EA
:1002A0000313D800003083120313A700A800003006
:1002B000A900AA000A168A157B230A128A11C930DE
:1002C000FB000030FC000A168A1504240A128A1169
:1002D000073083160313C7007C30C600C60B6E2997
:1002E000C70B6E290000013083120313A7000030F2
:1002F000A8000030A900AA000A168A157B230A125A
:100300008A11D830FB000030FC000A168A1504243C
:100310000A128A11063083160313C8001330C7006F
:10032000AD30C600C60B9229C70B9229C80B922983
:10033000B7280A128A11002883160313B8006B30FD
:10034000A900DD2F25303D060319A729A829B229C8
:10035000380884003D08831380000130FF007F08C7
:10036000B807DD2FAA01AB01831203136A088400CA
:100370000A128A150A200A128A112E3A031DC1296F
:10038000C229142A831603132B170130FF007F089C
:1003900083120313EA0783160313B601B701022A77
:1003A0000A30F0000030F100831603133708F30021
:1003B0003608F2000A168A15DF230A128A1171081C
:1003C00083160313B7007008B600831203136A087C
:1003D00084000A128A150A200A128A11D03E831656
:1003E0000313A000FF3003180030A1002008B60757
:1003F0000318B70A2108B7070130FF007F088312EE
:100400000313EA0783126A0884000A128A150A2075
:100410000A128A110A168A1569230A128A11031808
:10042000122A132AD0291C2A83160313B601B701F6
:100430002B161C2A2B153A2A013083120313EA07C4
:10044000FF306A0784000A128A150A200A128A11EC
:1004500083160313BD00A000A1012108003A03196F
:10046000322ADD2F2008003A0319F12F663A0319CA
:100470001A2ADD2F00302A05A00007302B05A10025
:10048000200821040319452A462A972F2B1E492AA2
:100490004A2A4E2A0630B6000030B70029088400E8
:1004A00083130008B900840A0008BA00840A00080F
:1004B000BB00840A0008BC000430FF007F08A907C5
:1004C0003C08F3003B08F2003A08F1003908F0005C
:1004D0000030F7000030F6000030F5000030F40086
:1004E0000A168A11D2200A128A110318782A792A48
:1004F000962A831603133C08F3003B08F2003A08DF
:10050000F1003908F0000A168A1541230A128A11EF
:10051000730883160313BC007208BB007108BA008D
:100520007008B9000330AA040030AB04831603132B
:10053000B001B1013C08F3003B08F2003A08F100B9
:100540003908F0000030F7000030F6000030F50008
:100550000030F4000A168A1514260A128A110318AC
:10056000B22AB32AA32B0310831603133B0D3C0DB1
:10057000823EB000FF3003180030B100FF30B007FA
:100580000318B10AFF30B1070330F0000030F1006A
:100590003108F3003008F2000A168A15DF230A1228
:1005A0008A11710883160313B1007008B0000A3075
:1005B000F6000030F7003108F9003008F8000A169C
:1005C0008A1521270A128A11770883160313B100AE
:1005D0007608B000B11FED2AEE2AF42AFF30B007EA
:1005E0000318B10AFF30B1073003FF3A0A128A1527
:1005F000A1240A128A11831203133D0883160313E0
:10060000B500831203133C0883160313B40083124E
:1006100003133B0883160313B300831203133A0832
:1006200083160313B2003C0883120313A30083163E
:1006300003133B0883120313A200831603133A0823
:1006400083120313A10083160313390883120313C3
:10065000A00083160313350883120313A700831623
:100660000313340883120313A600831603133308FD
:1006700083120313A5008316031332088312031396
:10068000A4000A128A155C210A128A11831203132C
:10069000230883160313B50083120313220883165D
:1006A0000313B40083120313210883160313B3004A
:1006B00083120313200883160313B2003508F300D6
:1006C0003408F2003308F1003208F0003F30F70040
:1006D0008030F6000030F5000030F4000A168A1170
:1006E000D2200A128A110318762B772B802BFF3029
:1006F00083160313B0070318B10AFF30B107A32B09
:10070000831603133508F3003408F2003308F100B0
:100710003208F0004130F7002030F6000030F500DC
:100720000030F4000A168A11D2200A128A11031C22
:100730009A2B9B2BA32B013083160313B0070318AE
:10074000B10A0030B107831603133708803AFF005F
:1007500080307F02031DAE2B0D3036020318B12B03
:10076000B22BF92B8316031336080A168A119D2320
:100770000A128A11831203133D08D1003C08D000ED
:100780003B08CF003A08CE00831603133C088312BF
:100790000313D500831603133B0883120313D400FD
:1007A000831603133A0883120313D300831603132B
:1007B000390883120313D2000A168A11A8250A12D7
:1007C0008A1183120313510883160313BC0083128A
:1007D0000313500883160313BB00831203134F083F
:1007E00083160313BA00831203134E0883160313F0
:1007F000B900831603133108803AFF0080307F026E
:10080000031D042C0A3030020318072C082C592C25
:10081000831603133C08F3003B08F2003A08F1008A
:100820003908F0000030F7000030F6000030F50025
:100830000030F4000A168A1514260A128A110318C9
:10084000222C232CCB2C831603133C088312031376
:10085000D000831603133B0883120313CF008316C3
:1008600003133A0883120313CE00831603133908C7
:1008700083120313CD000A168A1588270A128A11DB
:100880008312031350084F044E044D04031D492CDA
:100890004A2CCB2C831603133108803AFF0080309A
:1008A0007F02031D552C02303002031C582C592C9A
:1008B000CB2C831603133508F3003408F2003308F9
:1008C000F1003208F0004030F7008930F600703057
:1008D000F5005F30F4000A168A11D2200A128A113C
:1008E0000318732C742C7D2CF73083160313B00778
:1008F0000318B10AFF30B107852CF83083160313B3
:10090000B0070318B10AFF30B10730080A128A1580
:10091000A1240A128A11831203133D0883160313BC
:10092000B500831203133C0883160313B40083122B
:1009300003133B0883160313B300831203133A080F
:1009400083160313B2003C08F3003B08F2003A0898
:10095000F1003908F0003508F7003408F6003308D4
:10096000F5003208F4000A168A112B220A128A11A5
:10097000730883160313AF007208AE007108AD0050
:100980007008AC000030BC000030BB000030BA0082
:100990000030B9004F2D831603133C088312031354
:1009A000D000831603133B0883120313CF00831672
:1009B00003133A0883120313CE0083160313390876
:1009C00083120313CD000A168A1588270A128A118A
:1009D00083120313500883160313AF00831203130B
:1009E0004F0883160313AE00831203134E088316B9
:1009F0000313AD00831203134D0883160313AC00D9
:100A00002F08F9002E08F8002D08F7002C08F60032
:100A100000300A168A11E3220A128A117908831219
:100A20000313E5007808E4007708E3007608E200A5
:100A3000831603133C0883120313E9008316031380
:100A40003B0883120313E800831603133A0883124A
:100A50000313E70083160313390883120313E60018
:100A60000A168A15BB230A128A118312031365081A
:100A700083160313BC008312031364088316031345
:100A8000BB0083120313630883160313BA00831297
:100A90000313620883160313B900B001B101BD014D
:100AA000BD0A3D08A00001300310A00DFF3E031D4C
:100AB000542D0310200D693E84000A128A150A2065
:100AC0000A128A11A1000A128A150A200A128A1132
:100AD000A2000A128A150A200A128A11A3000A1219
:100AE0008A150A200A128A11A40024082F02031D65
:100AF000832D23082E02031D832D22082D02031DA2
:100B0000832D21082C020318862D872D882D922DE8
:100B10000130FF007F08BD070A303D06031D912DFF
:100B2000922D512D03302A05A00000302B05A10085
:100B30002008210403199D2D9E2D0C2E38088400B9
:100B40002D30831380000130FF007F08B8070C2E82
:100B50003D08A00001300310A00DFF3E031DAB2D8A
:100B60000310200D693E84000A128A150A200A1219
:100B70008A11F0000A128A150A200A128A11F1005D
:100B80000A128A150A200A128A11F2000A128A151C
:100B90000A200A128A11F3002F08F7002E08F60027
:100BA0002D08F5002C08F4000A168A15BB260A1237
:100BB0008A11730883160313B5007208B400710814
:100BC000B3007008B2000030F3000030F2000030D3
:100BD000F1000A30F0003508F7003408F600330859
:100BE000F5003208F4000A168A1102200A128A114E
:100BF000730883160313B5007208B4007108B300BC
:100C00007008B200380884003208303E8313800038
:100C10000130FF007F08B8070130BD023D0A031D07
:100C2000122E132EA82D252E8316031338088400A8
:100C30003030831380000130FF007F08B807FF3099
:100C4000B0070318B10AFF30B1073108803AFF003E
:100C500080307F02031D2E2E013030020318312E0A
:100C6000322E142E831603133708803AFF0080308B
:100C70007F02031D3D2E09303602031C402E412EFB
:100C8000462E083083160313BD004A2E8316031325
:100C90003608BD003D08A000A1012008B6022108C9
:100CA000031CB703B7023D080319572E582E612EB7
:100CB000380884002E30831380000130FF007F0845
:100CC000B8073D080A128A15A1240A128A11831254
:100CD00003133D0883160313A800831203133C0873
:100CE00083160313A700831203133B088316031311
:100CF000A600831203133A0883160313A5002808DD
:100D000083120313A7008316031327088312031308
:100D1000A60083160313260883120313A500831667
:100D20000313250883120313A400831603133C083E
:100D300083120313A300831603133B0883120313C8
:100D4000A200831603133A0883120313A10083162B
:100D50000313390883120313A0000A128A155C21B9
:100D60000A128A11831203132308D0002208CF002D
:100D70002108CE002008CD000A168A1588270A12FD
:100D80008A1183120313500883160313AF008312D2
:100D900003134F0883160313AE00831203134E0888
:100DA00083160313AD00831203134D088316031338
:100DB000AC00792F3D08A00001300310A00DFF3ECC
:100DC000031DDD2E0310200D693E84000A128A15D2
:100DD0000A200A128A11F0000A128A150A200A1241
:100DE0008A11F1000A128A150A200A128A11F200E9
:100DF0000A128A150A200A128A11F3002F08F70036
:100E00002E08F6002D08F5002C08F4000A168A15A5
:100E1000BB260A128A11730883160313B5007208E1
:100E2000B4007108B3007008B2000030F300003065
:100E3000F2000030F1000A30F0003508F700340805
:100E4000F6003308F5003208F4000A168A11022071
:100E50000A128A11730883160313B5007208B400CE
:100E60007108B3007008B200380884003208303EC0
:100E7000831380000130FF007F08B8073D08A00001
:100E800001300310A00DFF3E031D412F0310200D64
:100E9000693E84000A128A150A200A128A11F0009B
:100EA0000A128A150A200A128A11F1000A128A15FA
:100EB0000A200A128A11F2000A128A150A200A125E
:100EC0008A11F3002F08F7002E08F6002D08F50010
:100ED0002C08F4000A168A1102200A128A117308DB
:100EE00083160313AF007208AE007108AD007008DE
:100EF000AC000130BD023D0A031D7F2F802FDA2E8A
:100F0000902F380884003030831380000130FF00B8
:100F10007F08B807FF30B6070318B70AFF30B707D6
:100F200036083704031D952F962F812FDD2F3608A5
:100F30003704031D9C2F9D2FAB2F2F082E042D044B
:100F40002C04031DA42FA52FAB2F0130B6070318C7
:100F5000B70A0030B7073708803A803C031DB22F2C
:100F600036083D020318B52FB62FB72FC62F8316AC
:100F700003133708803AA00080302002031DC22FDF
:100F80003D0836020318C52FC62FC62F033083161F
:100F900003132A05A00000302B05A100200821041E
:100FA0000319D32FD42FDD2F380884002D3083135D
:100FB00080000130FF007F08B8070130831203135F
:100FC000EA07FF306A0784000A128A150A200A120B
:100FD0008A1183160313BD003D08031DF02FF12F66
:100FE000A2293808840083138001080083160313A4
:100FF000E701E801E901EA0183010A128A113D28AB
:10100000FF1B0A2883137F1883170008840A03191B
:10101000FF0A080008308A000408840A82070034A6
:101020000034003480343F34003400342034413400
:1010300000340034C8344234003400347A34443448
:10104000003440341C34463400345034C334473404
:1010500000342434743449348034963418344B3496
:101060002034BC34BE344C3428346B346E344E34AB
:10107000F934023415345034EC347834AD346034FF
:10108000CA34F234493471340034003480343F348B
:10109000CD34CC34CC343D340A34D73423343C34CE
:1010A0006F34123483343A341734B734D13438348B
:1010B000AC34C53427343734BD3437348634353412
:1010C0009534BF34D63433347734CC342B34323483
:1010D0005F34703489343034FF34E634DB342E34FA
:1010E0000834E5343C341E3460344234A2340D34C8
:1010F00001340034003400340A3400340034003445
:101100006434003400340034E834033400340034F0
:101110001034273400340034A034863401340034D1
:10112000403442340F3400348034963498340034E0
:101130000034E134F53405340034CA349A343B3495
:101140004134433445344C34453452344F344D34B7
:101150004534543452344F34003441346E346434A2
:1011600020344D34613474347A34003441346E3474
:10117000743475346E346534733400345834203428
:101180003D3420340034593420343D34203400348C
:1011900025342E343234663400340230FD004530BC
:1011A000FC00A930FB00FB0BD328FC0BD328FD0B64
:1011B000D328DA2830300A168A154D250A128A15E6
:1011C0002130FC007630FB00FB0BE428FC0BE4280C
:1011D000000030300A168A154D250A128A1507308C
:1011E000FC007D30FB00FB0BF328FC0BF3283030B8
:1011F0000A168A154D250A128A154130FC00EE3078
:10120000FB00FB0B0129FC0B0129000020300A1612
:101210008A154D250A128A154130FC00EE30FB007C
:10122000FB0B1029FC0B1029000028300A168A1528
:101230004D250A128A150730FC007D30FB00FB0BA0
:101240001F29FC0B1F2908300A168A154D250A1282
:101250008A150730FC007D30FB00FB0B2D29FC0BB1
:101260002D2901300A168A154D250A128A150730D4
:10127000FC007D30FB00FB0B3B29FC0B3B290730BE
:10128000FC007D30FB00FB0B4329FC0B432906309F
:101290000A168A154D250A128A150730FC007D3082
:1012A000FB00FB0B5129FC0B51290C300A168A1547
:1012B0004D250A128A15080083120313230880396A
:1012C000AD002308A8002807B300A21F68296929D8
:1012D0006A293314330803196E296F297E29330ACA
:1012E000031D732974297C290030A3000030A2005B
:1012F0000030A1000030A000A21786290030A30012
:101300000030A2000030A1000030A0002708803982
:10131000FF007F08AD062708A8002807B200A61F17
:10132000922993299429321432080319982999296A
:10133000A829320A031D9D299E29A6290030A7004D
:101340000030A6000030A5000030A400A617B02988
:101350000030A7000030A6000030A5000030A40037
:1013600032080319B429B529BA293308031DB9294C
:10137000BA29C3290030A3000030A2000030A10028
:101380000030A000A02C2008F00026080A168A15BC
:101390002A240A128A15710883120313B9007008EF
:1013A000B8003808A800A901AA01AB012B08B100B8
:1013B0002A08B0002908AF002808AE003908A800A4
:1013C000A901AA01AB012B08B7002A08B600290819
:1013D000B5002808B4002108F00025080A168A156F
:1013E0002A240A128A15710883120313B90070089F
:1013F000B8003808A800A901AA01AB012808AE0767
:10140000290803110318013E0319072AAF072A0808
:1014100003110318013E03190E2AB0072B0803110C
:101420000318013E0319152AB1073908A800A901BC
:10143000AA01AB012808B407290803110318013ECB
:101440000319232AB5072A0803110318013E0319BB
:101450002A2AB6072B0803110318013E0319312A63
:10146000B7072208F00024080A168A152A240A124F
:101470008A15710883120313B9007008B800380880
:10148000A800A901AA01AB012808AE072908031189
:101490000318013E03194D2AAF072A080311031848
:1014A000013E0319542AB0072B0803110318013E0B
:1014B00003195B2AB1073908A800A901AA01AB01E9
:1014C0002808B407290803110318013E0319692AE3
:1014D000B5072A0803110318013E0319702AB6073D
:1014E0002B0803110318013E0319772AB7070830A8
:1014F000A8000310AE0DAF0DB00DB10DA80B792AE9
:101500002108F00024080A168A152A240A128A15CE
:10151000710883120313B9007008B8003808A800D6
:101520003908A900AA01AB012808AE072908031150
:101530000318013E03199D2AAF072A080311031857
:10154000013E0319A42AB0072B0803110318013E1A
:101550000319AB2AB1072008F00025080A168A15DE
:101560002A240A128A15710883120313B90070081D
:10157000B8003808A8003908A900AA01AB0128085A
:10158000AE07290803110318013E0319C82AAF0743
:101590002A0803110318013E0319CF2AB0072B08AC
:1015A00003110318013E0319D62AB1070830A80019
:1015B0000310AE0DAF0DB00DB10DA80BD82A200849
:1015C000F00024080A168A152A240A128A157108BE
:1015D00083120313B9007008B8003808A80039084E
:1015E000A900AA01AB012808AE07290803110318B6
:1015F000013E0319FC2AAF072A0803110318013E14
:101600000319032BB0072B0803110318013E03191C
:101610000A2BB1072108F00026080A168A152A2489
:101620000A128A15710883120313B9007008B800F2
:101630003808A8003908A900AA01AB012808B40796
:10164000290803110318013E0319272BB5072A089F
:1016500003110318013E03192E2BB6072B080311A3
:101660000318013E0319352BB7072208F00025089F
:101670000A168A152A240A128A157108831203137E
:10168000B9007008B8003808A8003908A900AA01F4
:10169000AB012808B407290803110318013E0319F8
:1016A000522BB5072A0803110318013E0319592BC1
:1016B000B6072B0803110318013E0319602BB70767
:1016C0002208F00026080A168A152A240A128A150A
:1016D000710883120313B9007008B8003808A80015
:1016E0003908A900AA01AB0108300310A80DA90D03
:1016F000AA0DAB0DFF3E031D752B2808B407290862
:1017000003110318013E0319862BB5072A0803119C
:101710000318013E03198D2BB6072B08031103187C
:10172000013E0319942BB7072E08A8002F08A90023
:101730003008AA003108AB0018300310AB0CAA0C1B
:10174000A90CA80CFF3E031D9D2B2808B4072908EF
:1017500003110318013E0319AE2BB5072A08031124
:101760000318013E0319B52BB6072B080311031804
:10177000013E0319BC2BB7070830A8000310AE0DBB
:10178000AF0DB00DB10DA80BBE2B33083207A8006A
:10179000A901A90D2808823EB80029080318013EB6
:1017A000FF3EB900F02B0130A8000310B40DB50DB9
:1017B000B60DB70DA80BD52BB11FDF2BE02BE12BFE
:1017C00034140130A8000310AE0DAF0DB00DB10DF3
:1017D000A80BE32BFF30B8070318B90AFF30B9078D
:1017E000B61FF32BF42BD32BB201B11FF82BF92B1F
:1017F000152CFF302E05A800FF302F05A900FF3063
:101800003005AA007F303105AB002B082A042904DB
:10181000280403190C2C0D2C102CB201B20A152C23
:10182000341C132C142C152C0D2C32080319192CD4
:101830001A2C4B2C0130B407003003180130B507C7
:10184000003003180130B607003003180130B70725
:10185000371C2B2C2C2C4B2C3408A8003508A90045
:101860003608AA003708AB000130AC002B0DAB0CDA
:10187000AA0CA90CA80CAC0B362C2B08B7002A0814
:10188000B6002908B5002808B4000130B8070318CD
:10189000B90A0030B9073908803AFF0080307F026A
:1018A000031D542CFF303802031C572C582C632C7A
:1018B0007F3083120313B7008030B6000030B500CC
:1018C0000030B400942C831203133908803AFF00CF
:1018D00080307F02031D6E2C013038020318712CFA
:1018E000722C7E2C003083120313B7000030B60038
:1018F0000030B5000030B400AD01942C8312031306
:101900003808B300FF30B405FF30B5057F30B605A9
:101910000030B705331C8D2C8E2C8F2CB617330856
:10192000A8000310280CB7002D08FF007F08B7049B
:101930003708A3003608A2003508A1003408A0002B
:10194000080083120313CC00CC1FA72CA82C552E03
:10195000CC09CC0A4C08803A123E031CB02CB12CA6
:10196000992D0A30F6000030F7004C08F200F30120
:10197000F21BF3036430F0000030F1000A168A1500
:1019800062260A128A157108F9007008F8000A1612
:101990008A1521270A128A15760883120313BE00BE
:1019A00001300310BE0DFF3E031DD12C03103E0D70
:1019B000593E84000A128A150A200A128A15BF00AD
:1019C0000A128A150A200A128A15C0000A128A15FC
:1019D0000A200A128A15C1000A128A150A200A1260
:1019E0008A15C2004208A3004108A2004008A100D5
:1019F0003F08A0006430F6000030F7004C08F80003
:101A0000F901F81BF9030A168A1521270A128A150B
:101A1000760883120313C30001300310C30DFF3E89
:101A2000031D0D2D0310430D7D3E84000A128A15FF
:101A30000A200A128A15C4000A128A150A200A12FC
:101A40008A15C5000A128A150A200A128A15C600CC
:101A50000A128A150A200A128A15C7004708A70029
:101A60004608A6004508A5004408A4000A128A15E5
:101A70005C210A128A15831203132308CB00220863
:101A8000CA002108C9002008C8000A30F000003050
:101A9000F1004C08F200F301F21BF3030A168A1559
:101AA00062260A128A15700883120313BE000130E1
:101AB0000310BE0DFF3E031D582D03103E0D353E95
:101AC00084000A128A150A200A128A15BF000A1217
:101AD0008A150A200A128A15C0000A128A150A20DD
:101AE0000A128A15C1000A128A150A200A128A15DA
:101AF000C2004208A3004108A2004008A1003F081C
:101B0000A0004B08A7004A08A6004908A5004808FD
:101B1000A4000A128A155C210A128A158312031383
:101B20002308BD002208BC002108BB002008BA0021
:101B3000FF2F4C08803A753E031C9F2DA02D282EA8
:101B40000A30F0000030F1004C08F200F301F21B03
:101B5000F3030A168A1562260A128A157008831280
:101B60000313BE0001300310BE0DFF3E031DB32D55
:101B700003103E0D353E84000A128A150A200A120F
:101B80008A15BF000A128A150A200A128A15C00097
:101B90000A128A150A200A128A15C1000A128A1529
:101BA0000A200A128A15C2004208A3004108A200B6
:101BB0004008A1003F08A0000A30F6000030F700FE
:101BC0004C08F800F901F81BF9030A168A152127B9
:101BD0000A128A15760883120313C300013003101A
:101BE000C30DFF3E031DEF2D0310430D593E84002E
:101BF0000A128A150A200A128A15C4000A128A15C6
:101C00000A200A128A15C5000A128A150A200A1229
:101C10008A15C6000A128A150A200A128A15C700F8
:101C20004708A7004608A6004508A5004408A400E8
:101C30000A128A155C210A128A15831203132308DB
:101C4000BD002208BC002108BB002008BA00FF2FFD
:101C50004C08BE0001300310BE0DFF3E031D2B2EAD
:101C600003103E0D353E84000A128A150A200A121E
:101C70008A15BF000A128A150A200A128A15C000A6
:101C80000A128A150A200A128A15C1000A128A1538
:101C90000A200A128A15C2004208BD004108BC0091
:101CA0004008BB003F08BA00FF2F4C08803A123EA4
:101CB000031C5B2E5C2E442F0A30F6000030F70028
:101CC0004C08F200F301F21BF3036430F000003023
:101CD000F1000A168A1562260A128A157108F9009F
:101CE0007008F8000A168A1521270A128A15760844
:101CF00083120313BE0001300310BE0DFF3E031D0F
:101D00007C2E03103E0D253E84000A128A150A20FF
:101D10000A128A15BF000A128A150A200A128A15A9
:101D2000C0000A128A150A200A128A15C1000A1276
:101D30008A150A200A128A15C2004208A300410827
:101D4000A2004008A1003F08A0006430F600003067
:101D5000F7004C08F800F901F81BF9030A168A1578
:101D600021270A128A15760883120313C300013053
:101D70000310C30DFF3E031DB82E0310430D493E53
:101D800084000A128A150A200A128A15C4000A124F
:101D90008A150A200A128A15C5000A128A150A2015
:101DA0000A128A15C6000A128A150A200A128A1512
:101DB000C7004708A7004608A6004508A500440834
:101DC000A4000A128A155C210A128A1583120313D1
:101DD0002308CB002208CA002108C9002008C80037
:101DE0000A30F0000030F1004C08F200F301F21B61
:101DF000F3030A168A1562260A128A1570088312DE
:101E00000313BE0001300310BE0DFF3E031D032F60
:101E100003103E0D013E84000A128A150A200A12A0
:101E20008A15BF000A128A150A200A128A15C000F4
:101E30000A128A150A200A128A15C1000A128A1586
:101E40000A200A128A15C2004208A3004108A20013
:101E50004008A1003F08A0004B08A7004A08A600C0
:101E60004908A5004808A4000A128A155C210A1234
:101E70008A15831203132308BD002208BC00210821
:101E8000BB002008BA00FF2F4C08803A753E031CA7
:101E90004A2F4B2FD32F0A30F0000030F1004C08AE
:101EA000F200F301F21BF3030A168A1562260A12E6
:101EB0008A15700883120313BE0001300310BE0D93
:101EC000FF3E031D5E2F03103E0D013E84000A12EB
:101ED0008A150A200A128A15BF000A128A150A20DA
:101EE0000A128A15C0000A128A150A200A128A15D7
:101EF000C1000A128A150A200A128A15C200420875
:101F0000A3004108A2004008A1003F08A0000A3039
:101F1000F6000030F7004C08F800F901F81BF9034F
:101F20000A168A1521270A128A15760883120313C6
:101F3000C30001300310C30DFF3E031D9A2F031091
:101F4000430D253E84000A128A150A200A128A15BA
:101F5000C4000A128A150A200A128A15C5000A123C
:101F60008A150A200A128A15C6000A128A150A2042
:101F70000A128A15C7004708A7004608A6004508A8
:101F8000A5004408A4000A128A155C210A128A15C9
:101F9000831203132308BD002208BC002108BB00E4
:101FA0002008BA00FF2F4C08BE0001300310BE0D00
:101FB000FF3E031DD62F03103E0D013E84000A1282
:101FC0008A150A200A128A15BF000A128A150A20E9
:101FD0000A128A15C0000A128A150A200A128A15E6
:101FE000C1000A128A150A200A128A15C200420884
:101FF000BD004108BC004008BB003F08BA00080013
:102004007308720471047004031909280A284D28FE
:10201400F901F90A1A280130F8000310F00DF10D46
:10202400F20DF30DF80B0F280130FF007F08F907BC
:10203400F31F1D281E280D2873087702031D2C2862
:1020440072087602031D2C2871087502031D2C28C2
:1020540070087402031C2F2830283E287008F402EC
:102064007108031C710FF5027208031C720FF6024B
:102074007308031C730FF70201300310F30CF20C06
:10208400F10CF00CFF3E031D3F280130F902031D43
:102094004C284D281E287708F3007608F2007508AE
:1020A400F1007408F0000800831603134208430487
:1020B400031D5D285E28942845088400AF308313EF
:1020C4008000B93083120313EA0083160313410816
:1020D40083120313EE0083160313400883120313C1
:1020E400ED00831603133F0883120313EC008316D9
:1020F40003133E0883120313EB00831603134408EF
:102104000A128A119C210A168A11831603134408A1
:10211400F00045080A168A1551240A168A118316F6
:102124000313C50042034304031D99289A28D028A9
:1021340045088400B43083138000B930831203133C
:10214400EA0083160313410883120313EE00831677
:102154000313400883120313ED00831603133F088F
:1021640083120313EC00831603133E088312031334
:10217400EB008316031344080A128A119C210A16E1
:102184008A11831603134408F00045080A168A15B9
:1021940051240A168A1183160313C5004508080042
:1021A40000307005F80000307105F90080307205C8
:1021B400FA007F307305FB007B087A047904780405
:1021C400031DE528E628EE280030F3000030F20075
:1021D4000030F1000030F00000307405F8000030E9
:1021E4007505F90080307605FA007F307705FB002D
:1021F4007B087A0479047804031D012902290A2939
:102204000030F7000030F6000030F5000030F40034
:10221400F31F0D290E2932290030F8000030F9008F
:102224000030FA008030FB007008F8027108031CCB
:10223400710F1D291E29F9027208031C720F23292C
:102244002429FA027308031C730F29292A29FB0283
:102254007B08F3007A08F2007908F1007808F000AE
:10226400F71F352936295A290030F8000030F900C3
:102274000030FA008030FB007408F8027508031C73
:10228400750F45294629F9027608031C760F4B2958
:102294004C29FA027708031C770F51295229FB02B3
:1022A4007B08F7007A08F6007908F5007808F4004E
:1022B4008030F3068030F70677087302031D6C291B
:1022C40076087202031D6C2975087102031D6C29BE
:1022D4007408700203186F29702972290310732976
:1022E400031408007008F8007108F9007208FA0075
:1022F4000310790D7A0D83120313A5002508031D1D
:10230400842985298E290030F3000030F200003042
:10231400F1000030F0002A2A7408F8007508F9006A
:102324007608FA000310790D7A0DA4002408031D21
:102334009C299D299E298529F117FF30F005FF303E
:10234400F1050030F205F517FF30F405FF30F5050F
:102354000030F6050030A3000030A2000030A100D8
:102364000030A0007F30A50298302407F8007808D8
:10237400A5021830A4000130F8000310A00DA10D2F
:10238400A20DA30DF80BBF2976087202031DD029F4
:1023940075087102031DD02974087002031CD32927
:1023A400D429DF297408F0027508031C750FF102A3
:1023B4007608031C760AF202201401300310F00D93
:1023C400F10DF20DFF3E031DE0290130A402031DAF
:1023D400EC29ED29BD29A51FF029F1290B2A25088F
:1023E400803A973E0318F729F829F92985290130FD
:1023F4000310A30CA20CA10CA00CFF3E031DFA2990
:102404000130FF007F08A507031D092A0A2AF929BC
:10241400222A18302502031C102A112A1D2A852974
:102424000130F8000310A00DA10DA20DA30DF80BAF
:10243400142A0130A5022508031D212A222A122A62
:102444002308F3002208F2002108F1002008F0001C
:1024540008000310720D730D83120313A5002508E1
:10246400031D352A362A3F2A0030F3000030F200DB
:102474000030F1000030F000E22A0310760D770DF1
:10248400A4002408031D472A482A492A362AF21799
:10249400FF30F005FF30F105FF30F2050030F305A1
:1024A400F617FF30F405FF30F505FF30F605003070
:1024B400F7050030A3000030A2000030A100003076
:1024C400A0007F30A502A0302407F8007808A502F8
:1024D4002030A4000130F8000310A00DA10DA20DBE
:1024E400A30DF80B6E2A77087302031D832A76085E
:1024F4007202031D832A75087102031D832A74085E
:102504007002031C862A872A962A7408F00275082A
:10251400031C750FF1027608031C760FF20277088C
:10252400031C770FF30220140130F8000310F00DA0
:10253400F10DF20DF30DF80B982A0130A402031DDE
:10254400A42AA52A6C2AA51FA82AA92AC32A2508D1
:10255400803A9F3E0318AF2AB02AB12A362A0130A6
:102564000310A30CA20CA10CA00CFF3E031DB22A65
:102574000130FF007F08A507031DC12AC22AB12A22
:10258400DA2A20302502031CC82AC92AD52A362A69
:102594000130F8000310A00DA10DA20DA30DF80B3E
:1025A400CC2A0130A5022508031DD92ADA2ACA2A11
:1025B4002308F3002208F2002108F1002008F000AB
:1025C400080083120313A00020080319EA2AEB2A47
:1025D400FF2AF91FEE2AEF2AFF2A7609A2007709BB
:1025E400A3007809A4007909A500A20A0319A30A83
:1025F4000319A40A0319A50A072B7908A50078086A
:10260400A4007708A3007608A20079087804770468
:102614007604031D0E2B0F2B182B0030F90000300D
:10262400F8000030F7000030F6009C2B9630A10033
:10263400282B0130FF007F08A10701300310A50CEF
:10264400A40CA30CA20CFF3E031D202BFE30250579
:10265400031D2D2B2E2B1B2B4A2B0130FF007F0833
:10266400A1070130A207003003180130A30700308E
:1026740003180130A407003003180130A507013006
:102684000310A50CA40CA30CA20CFF3E031D422BAB
:10269400FF302505031D4F2B502B2F2B5C2B0130B6
:1026A400A1020130FA000310A20DA30DA40DA50D83
:1026B400FA0B552BA41B5F2B602B662B02302102D7
:1026C4000318652B662B512B2118692B6A2B722B4F
:1026D400FF30A205FF30A3057F30A405FF30A50518
:1026E4000310A10C2108FA00FB01FC01FD011830C4
:1026F4000310FA0DFB0DFC0DFD0DFF3E031D7A2B9F
:102704007A08A2047B08A3047C08A4047D08A50419
:10271400200803198E2B8F2B942BF91F922B932BAC
:10272400942BA5172508F9002408F8002308F700BE
:102734002208F600080083120313CD006E304D0208
:10274400031CA52BA62BB32C3F30A3000030A20002
:102754000030A1000030A0006430F5000030F60025
:102764004D08BE00BF013E08F7003F08F8000A16F6
:102774008A15D0250A168A11750883120313C0001E
:1027840001300310C00DFF3E031DC32B0310400D89
:102794007D3E84000A128A150A200A168A11C10095
:1027A4000A128A150A200A168A11C2000A128A1508
:1027B4000A200A168A11C3000A128A150A200A1668
:1027C4008A11C4004408A7004308A6004208A500D3
:1027D4004108A4000A128A155C210A168A11831280
:1027E40003132308CC002208CB002108CA002008C8
:1027F400C9000A30F5000030F6004D08BE00BF01E4
:102804003E08F2003F08F3006430F0000030F100AD
:102814000A128A1103200A168A117108F800700836
:10282400F7000A168A15D0250A168A11750883122C
:102834000313C00001300310C00DFF3E031D1D2C07
:102844000310400D593E84000A128A150A200A1604
:102854008A11C1000A128A150A200A168A11C200B6
:102864000A128A150A200A168A11C3000A128A1546
:102874000A200A168A11C4004408A3004308A200CF
:102884004208A1004108A0004C08A7004B08A6007C
:102894004A08A5004908A4000A128A155C210A16F0
:1028A4008A11831203132308C8002208C7002108D1
:1028B400C6002008C5000A30F0000030F1004D08C1
:1028C400BE00BF013E08F2003F08F3000A128A115D
:1028D40003200A168A11700883120313C000013002
:1028E4000310C00DFF3E031D722C0310400D353E36
:1028F40084000A128A150A200A168A11C1000A12D3
:102904008A150A200A168A11C2000A128A150A2098
:102914000A168A11C3000A128A150A200A168A1195
:10292400C4004408A3004308A2004208A1004108CF
:10293400A0004808A7004708A6004608A5004508C7
:10294400A4000A128A155C210A168A118312031341
:102954002308BD002208BC002108BB002008BA00DF
:10296400A72D0B304D02031CB82CB92C642D3F301D
:10297400A3000030A2000030A1000030A0000A3003
:10298400F5000030F6004D08BE00BF013E08F70018
:102994003F08F8000A168A15D0250A168A11750808
:1029A40083120313C00001300310C00DFF3E031D4A
:1029B400D62C0310400D593E84000A128A150A20B1
:1029C4000A168A11C1000A128A150A200A168A11E7
:1029D400C2000A128A150A200A168A11C3000A12B2
:1029E4008A150A200A168A11C4004408A70043085D
:1029F400A6004208A5004108A4000A128A155C2119
:102A04000A168A11831203132308CC002208CB0070
:102A14002108CA002008C9000A30F0000030F10083
:102A24004D08BE00BF013E08F2003F08F3000A1241
:102A34008A1103200A168A11700883120313C00036
:102A440001300310C00DFF3E031D232D0310400D64
:102A5400353E84000A128A150A200A168A11C1001A
:102A64000A128A150A200A168A11C2000A128A1545
:102A74000A200A168A11C3000A128A150A200A16A5
:102A84008A11C4004408A3004308A2004208A1001C
:102A94004108A0004C08A7004B08A6004A08A5005E
:102AA4004908A4000A128A155C210A168A118312A5
:102AB40003132308BD002208BC002108BB00200822
:102AC400BA00A72D3F30A3000030A2000030A100BF
:102AD4000030A0004D08BE0001300310BE0DFF3EC3
:102AE400031D6F2D03103E0D353E84000A128A1516
:102AF4000A200A168A11BF000A128A150A200A1629
:102B04008A11C0000A128A150A200A168A11C10005
:102B14000A128A150A200A168A11C2004208A7005E
:102B24004108A6004008A5003F08A4000A128A151F
:102B34005C210A168A11831203132308BD0022089C
:102B4400BC002108BB002008BA000800831203134C
:102B540051088039DE005108D6005607E000D01F26
:102B6400B42DB52DB62D601460080319BA2DBB2DF4
:102B7400CB2D600A031DBF2DC02DC82D0030D10000
:102B84000030D0000030CF000030CE00D017D1018B
:102B9400D32D0030D1000030D0000030CF00003001
:102BA400CE0055088039DF005F085E060319DB2D6F
:102BB400DC2DDD2D5E175508D6005607DF00D41F27
:102BC400E42DE52DE62D5F145F080319EA2DEB2DA6
:102BD400FB2D5F0A031DEF2DF02DF82D0030D500DD
:102BE4000030D4000030D3000030D200D417D50117
:102BF400032E0030D5000030D4000030D300003064
:102C0400D20060085F020318082E092E2F2E5E1FC3
:102C14000C2E0D2E112E8030FF007F08DE0660087A
:102C2400E1005F08E0006108DF004E08E10052089F
:102C3400CE006108D2004F08E1005308CF006108BC
:102C4400D3005008E1005408D0006108D4005108B2
:102C5400E1005508D1006108D500E1015F08D60004
:102C6400D7015708D90060085602D800031CD903BD
:102C74005908803AFF0080307F02031D432E1A302A
:102C84005802031C462E472E7E2E8312031351082E
:102C940050044F044E04031D502E522E0130532E67
:102CA4000030E1000030D1000030D0000030CF000F
:102CB4000030CE005F08E000862E611C622E632E79
:102CC4006A2E6108D6000310560C0138E1006C2E00
:102CD4000310E10C4E1C6F2E702E712EE117013083
:102CE400D600510DD10CD00CCF0CCE0CD60B732EBC
:102CF4000130FF007F08E007831203135F086002BE
:102D0400031C852E862E5F2E5E1B892E8A2ED32EC3
:102D14006008031D8E2E8F2E982E0030D1000030B7
:102D2400D0000030CF000030CE00FF2F5208CE0775
:102D3400530803110318013E0319A12ECF075408A9
:102D440003110318013E0319A82ED00755080311D7
:102D54000318013E0319AF2ED107511CB22EB32E16
:102D6400872F611CB62EB72EBE2E6108D600031025
:102D7400560C0138E100C02E0310E10C4E1CC32E8A
:102D8400C42EC52EE1170130D600510DD10CD00C44
:102D9400CF0CCE0CD60BC72E0130FF007F08E00706
:102DA400872F5108803AFF005508803A7F02031D9F
:102DB400E52E54085002031DE52E53084F02031D4F
:102DC400E52E52084E020318E82EE92E412FFF305B
:102DD400D600FF30D700FF30D800FF30D9005208AA
:102DE400DA005308DB005408DC005508DD004E0807
:102DF400DA024F08031C4F0F002F012FDB0250088B
:102E0400031C500F062F072FDC025108031C510F1F
:102E14000C2F0D2FDD025A08D6075B0803185B0F31
:102E2400142F152FD7075C0803185C0F1A2F1B2FBC
:102E3400D8075D0803185D0AD9075908D100580856
:102E4400D0005708CF005608CE008030FF007F081E
:102E5400DE06E109E10A6108031D312F322F4F2FED
:102E64000130CE07003003180130CF0700300318BB
:102E74000130D007003003180130D1074F2F52081A
:102E8400CE025308031C530FCF025408031C540FE3
:102E9400D0025508031C550FD102510850044F04A9
:102EA4004E04031D562F572F832F6108031D5B2FDC
:102EB4005C2F832F0030D1000030D0000030CF00D1
:102EC4000030CE00FF2F0130D6000310CE0DCF0D01
:102ED400D00DD10DD60B672FE11F712F722F732FD9
:102EE4004E14611C762F772F7A2F0314E10D7C2F5B
:102EF4000310E10D60080319802F812F832F013007
:102F0400E002D01F862F872F652FDF01E11F8B2F53
:102F14008C2F9A2F61087F390319912F922F952FA7
:102F2400DF01DF0A9A2F4E1C982F992F9A2F922F88
:102F34005F0803199E2F9F2FD32F0130CE07003037
:102F440003180130CF07003003180130D0070030D8
:102F540003180130D107511CB02FB12FD32F4E08C5
:102F6400D6004F08D7005008D8005108D9000130C6
:102F7400DA00590DD90CD80CD70CD60CDA0BBB2FB0
:102F84005908D1005808D0005708CF005608CE0081
:102F9400600A0319CE2FCF2FD32F0130FF007F08F3
:102FA400E007600A0319D72FD82FDD2F6008031D0F
:102FB400DC2FDD2FEB2F0030D1000030D0000030AB
:102FC400CF000030CE006008031DE92FEA2FEB2F5D
:102FD400DE01601CEE2FEF2FF12FD017F52F7F307D
:102FE400FF007F08D0056008D6000310560CD100FE
:0C2FF400DE1FFD2FFE2FFF2FD11708005D
:10364C008130831203139F008030831603139F0075
:10365C0008000A168A154C230A168A1583160313BA
:10366C00111408000A168A154C230A168A1583169B
:10367C000313111508007308720471047004031904
:10368C00482B492B4B2B8030F30608008316031371
:10369C001419512B522B4C2B11081F39031D572B6E
:1036AC00582B4C2B0800F0000A168A154C230A16CE
:1036BC008A1570088312031393000A168A154C237B
:1036CC000A168A150800F100F0013A30710203184D
:1036DC00702B712B792B30307102031C762B772BCE
:1036EC00792BF001F00A700C0800832BA917922B90
:1036FC00C030A9040030AA04922B831203132808AB
:10370C00003A03198A2B922B2708003A03197C2BB9
:10371C00013A03197E2B922B29080A168A154D257E
:10372C000A168A15080080300A168A154D250A16C5
:10373C008A15FB01FC0120300A168A150E250A1683
:10374C008A150130FB070318FC0A0030FC077C08C3
:10375C00803AFF0080307F02031DB62B46307B027F
:10376C00031CB92BBA2BA12B080080308312031336
:10377C00E5066908D1006808D0006708CF00660824
:10378C00CE006508D5006408D4006308D300620835
:10379C00D2000A168A11A8250A168A158312031359
:1037AC005108E5005008E4004F08E3004E08E20021
:1037BC000800F401F501701CE42BE52BEB2B7208CF
:1037CC00F4070318F50A7308F50701300310F20D1E
:1037DC00F30DFF3E031DEC2B01300310F10CF00C2C
:1037EC00FF3E031DF32B70087104031DFE2BFF2BF2
:1037FC00E12B7508F1007408F0000800192C7C0806
:10380C00FF007B0884000A128A1500200A168A150C
:10381C000A168A150E250A168A150130FB0703189D
:10382C00FC0A0030FC077C0883120313FF007B08A2
:10383C0084000A128A1500200A168A15003A031D04
:10384C00282C292C052C0800F800F401F50170082F
:10385C00F200F3017208F6007308F700781C372C9D
:10386C00382C3E2C7608F4070318F50A7708F50770
:10387C0001300310F60DF70DFF3E031D3F2C031016
:10388C00F80C7808031D4B2C4C2C342C7508F100CB
:10389C007408F0000800F2007208F100592C013095
:1038AC00FF007F08F1077108840083130008031DD3
:1038BC00602C612C552C6A2C0130FF007F08F1071D
:1038CC000130FF007F08F007700884000008FF003B
:1038DC00710884007F0880000008031D762C772C6B
:1038EC00622C720808007108803AFF0080307F0259
:1038FC00031D822C08307002031C852C862C892C0D
:10390C00F001F101A62C831203139F111F129F12B9
:10391C007008F20002300310F20DFF3E031D912CD3
:10392C000310720DFF007F089F041F151F199F2C99
:10393C00A02C9C2C1E08F100831603131E08F0000B
:10394C0008007108F5007507FE39F60076080A16AE
:10395C008A1559230A168A15F701F801C72C77081E
:10396C007207F50075088400831300080A168A157F
:10397C0059230A168A150130F7070318F80A003084
:10398C00F8077808803AF5007408803A7502031D30
:10399C00D12C73087702031CD42CD52CB52C080021
:1039AC00283083120313940083160313910194019E
:1039BC00831203132008A4002108A5002208A600E6
:1039CC002308A70002300310A40DA50DA60DA70D0A
:1039DC00FF3E031DE92C2708F3002608F2002508FA
:1039EC00F1002408F0000130F7003130F6002D30E2
:1039FC00F5000030F4000A168A15BB260A168A1543
:103A0C007008FF3E831603139300871507160800F2
:103A1C0083120313A4002408F039A5002408F9002C
:103A2C0003300310F90DFF3E031D172D0310790D04
:103A3C00F039A60025080D38A00025080938A1008A
:103A4C0026080D38A20026080938A3000A168A1584
:103A5C002F230A168A152730F1002030F20004308B
:103A6C00F3000030F40000300A168A15A7240A1659
:103A7C008A150A168A1538230A168A150730FA0091
:103A8C007D30F900F90B482DFA0B482D08008312F4
:103A9C000313A4002408F039A5002408F90003300E
:103AAC000310F90DFF3E031D562D0310790DF0394F
:103ABC00A60025080C38A00025080838A100260807
:103ACC000C38A20026080838A3000A168A152F23E2
:103ADC000A168A152730F1002030F2000430F3006A
:103AEC000030F40000300A168A15A7240A168A152D
:103AFC000A168A1538230A168A152130FA007630F0
:103B0C00F900F90B872DFA0B872D00000800053002
:103B1C00F2000030F300831203132708F10026088B
:103B2C00F0000A168A15DF230A168A15700883120C
:103B3C000313AA007108AB000A300310AB0CAA0CDB
:103B4C00FF3E031DA32D2A08AC002B08AD00AE01CF
:103B5C00AF012F08F9002E08F8002D08F7002C08EB
:103B6C00F60000300A168A11E3220A168A15790823
:103B7C0083120313B3007808B2007708B1007608FB
:103B8C00B0003308A9003208A8003108A70030089B
:103B9C00A6000800F901FA01750876040319D72D5F
:103BAC00D82D0F2EFB01FB0AE62D01300310F50D6D
:103BBC00F60DFF3E031DDC2D0130FF007F08FB07D7
:103BCC00F61FE92DEA2DDB2D01300310F90DFA0D4E
:103BDC00FF3E031DEB2D76087802031DF72D7508AB
:103BEC007702031CFA2DFB2D022E7508F7027608BE
:103BFC00031CF803F802791401300310F60CF50CD1
:103C0C00FF3E031D032E0130FB02031D0E2E0F2E53
:103C1C00EA2D7A08F6007908F500080000307005E6
:103C2C00F80000307105F90080307205FA007F3021
:103C3C007305FB007B087A0479047804031D272E96
:103C4C00282E302E0030F3000030F2000030F1004E
:103C5C000030F00000307405F80000307505F900F4
:103C6C0080307605FA007F307705FB007B087A04FC
:103C7C0079047804031D432E442E4C2E0030F7009B
:103C8C000030F6000030F5000030F40077087306C1
:103C9C00031D5A2E76087206031D5A2E75087106DE
:103CAC00031D5A2E7408700603195D2E5E2E602EAD
:103CBC000310612E03140800F501F31F662E672E06
:103CCC006E2EF209F309F20A0319F30AF501F50A4B
:103CDC00F11F712E722E772EF009F109F00A0319DB
:103CEC00F10A7008710403197C2E7D2EAC2EF401A0
:103CFC00F40A8B2E01300310F00DF10DFF3E031D65
:103D0C00812E0130FF007F08F407F11F8E2E8F2EBD
:103D1C00802E71087302031D952E70087202031C0D
:103D2C00982E992E9F2E7008F2027108031CF30333
:103D3C00F30201300310F10CF00CFF3E031DA02E1A
:103D4C000130F402031DAB2EAC2E8F2E7508031917
:103D5C00B02EB12EB62EF209F309F20A0319F30AAA
:103D6C007308F1007208F00008000030FC0000300D
:103D7C00FB000030FA000030F90073087204710483
:103D8C0070040319CA2ECB2E182FFD01FD0ADB2E51
:103D9C000130F8000310F00DF10DF20DF30DF80BDE
:103DAC00D02E0130FF007F08FD07F31FDE2EDF2E23
:103DBC00CE2E0130F8000310F90DFA0DFB0DFC0DA1
:103DCC00F80BE12E73087702031DF62E72087602AB
:103DDC00031DF62E71087502031DF62E7008740271
:103DEC00031CF92EFA2E092F7008F4027108031C1B
:103DFC00710FF5027208031C720FF6027308031C94
:103E0C00730FF702791401300310F30CF20CF10C60
:103E1C00F00CFF3E031D0A2F0130FD02031D172F6E
:103E2C00182FDF2E7C08F3007B08F2007A08F100D3
:103E3C007908F0000800FB01F71F252F262F2D2FE6
:103E4C00F609F709F60A0319F70AFB01FB0AF91F31
:103E5C00302F312F3A2FF809F909F80A0319F90A0A
:103E6C000130FF007F08FB06FC01FD01760877049A
:103E7C000319412F422F792FFA01FA0A502F0130E2
:103E8C000310F60DF70DFF3E031D462F0130FF000A
:103E9C007F08FA07F71F532F542F452F01300310BB
:103EAC00FC0DFD0DFF3E031D552F77087902031DF8
:103EBC00612F76087802031C642F652F6C2F76080F
:103ECC00F8027708031CF903F9027C140130031083
:103EDC00F70CF60CFF3E031D6D2F0130FA02031D8B
:103EEC00782F792F542F7B0803197D2F7E2F832F4A
:103EFC00FC09FD09FC0A0319FD0A7D08F7007C0882
:103F0C00F60008000310831203134F0D500DD6005A
:103F1C005608031D922F932F9C2F0030D000003099
:103F2C00CF000030CE000030CD00FF2F4D08D10067
:103F3C004E08D2004F08D3005008D4001F30031095
:103F4C00D40CD30CD20CD10CFF3E031DA52F510861
:103F5C00D500CF17FF30CD05FF30CE05FF30CF0594
:103F6C000030D0059630D602D61FBD2FBE2FD82FCD
:103F7C005608803A973E0318C42FC52FC62F932F8F
:103F8C0001300310D00CCF0CCE0CCD0CFF3E031D1A
:103F9C00C72F0130FF007F08D607031DD62FD72F60
:103FAC00C62FEF2F20305602031CDD2FDE2FEA2FF9
:103FBC00932F0130D1000310CD0DCE0DCF0DD00DB0
:103FCC00D10BE12F0130D6025608031DEE2FEF2F37
:103FDC00DF2F55080319F32FF42FFF2FCD09CE092E
:103FEC00CF09D009CD0A0319CE0A0319CF0A031938
:043FFC00D00A0800DF
:02400E007A3FF7
:00000001FF
