:100000000A128A11FC2F00308A000408840A820731
:10001000003441346E34743475346E346534733462
:0C0020002D3450346C346F3474340034D0
:100D120038300A128A11C1260A128A110C300A12BC
:100D22008A11C1260A128A1106300A128A11C126B4
:100D32000A128A1180300A128A11C1260A128A11F5
:100D42000800F300B42E730884000A128A110320EB
:100D52000A128A110A128A11E2260A128A11013033
:100D6200FF007F08F307730884000A128A11032028
:100D72000A128A11003A031DBF2EC02EA42E0800AB
:100D8200F0007008831203138600071087100715FE
:100D9200F101F2010130F1070318F20A0030F20703
:100DA2007208803AFF0083307F02031DDA2EE8309A
:100DB2007102031CDD2EDE2ECB2E831203130711CC
:100DC2000800F000700883120313860007148710CE
:100DD2000715F101F2010130F1070318F20A0030A0
:100DE200F2077208803AFF0083307F02031DFB2E58
:100DF200E8307102031CFE2EFF2EEC2E8312031329
:100E0200071108002830831203139400831603137A
:100E120091019401831203132008A4002108A50064
:100E22002208A6002308A70002300310A40DA50D76
:100E3200A60DA70DFF3E031D162F2708F300260857
:100E4200F2002508F1002408F0000130F7003130EB
:100E5200F6002D30F5000030F4000A128A119627B0
:100E62000A128A117008FF3E831603139300871536
:100E720007160800831603138601831203138601E3
:100E82008316031307108710071100308312031310
:100E9200A3000130A2008630A100A030A0000A12F7
:100EA2008A1103270A128A110A128A1189260A1242
:100EB2008A118A300A128A11C1260A128A11013055
:100EC2000A128A11A2260A128A1183120313A80196
:100ED200A9010130A8070318A90A0030A9073A306E
:100EE2002902983003192802031C782F792F6A2FC0
:100EF20018300A128A11C1260A128A1183120313A8
:100F0200A801A9010130A8070318A90A0030A907FE
:100F12003A302902983003192802031C912F922F8C
:100F2200832F662F0A128A1100280030FC0000303D
:100F3200FB000030FA000030F900730872047104FB
:100F420070040319A52FA62FF32FFD01FD0AB62F5A
:100F52000130F8000310F00DF10DF20DF30DF80B56
:100F6200AB2F0130FF007F08FD07F31FB92FBA2F07
:100F7200A92F0130F8000310F90DFA0DFB0DFC0D3D
:100F8200F80BBC2F73087702031DD12F720876026B
:100F9200031DD12F71087502031DD12F7008740231
:100FA200031CD42FD52FE42F7008F4027108031C00
:100FB200710FF5027208031C720FF6027308031C0C
:100FC200730FF702791401300310F30CF20CF10CD9
:100FD200F00CFF3E031DE52F0130FD02031DF22F31
:100FE200F32FBA2F7C08F3007B08F2007A08F10095
:0E0FF2007908F000080083010A128A113B2FD3
:02400E007A3FF7
:00000001FF
