:060000000A128A11FC2F18
:100F2A008130831203139F008030831603139F00BE
:100F3A0008007108803AFF0080307F02031DA72F46
:100F4A0008307002031CAA2FAB2FAE2FF001F1015B
:100F5A00CB2F831203139F111F129F127008F200E6
:100F6A0002300310F20DFF3E031DB62F0310720D5F
:100F7A00FF007F089F041F151F19C42FC52FC12FFB
:100F8A001E08F100831603131E08F0000800FF3044
:100F9A0083160313850086018801831203138801CF
:100FAA0086010A128A1195270A128A110030F00066
:100FBA00F1000A128A119E270A128A117108F40096
:100FCA007008F30002307402013003197302031C23
:100FDA00EF2FF02FF52FFF30831203138600DB2F3C
:100FEA00831203138601DB2F0A128A110028830158
:060FFA000A128A11CC2F3F
:02400E007A3FF7
:00000001FF
