:060000000A128A11FC2F18
:100E06008316031311141118092F0A2F062F8312A4
:100E160003138C110800F100710883120313930069
:100E26000A128A1119270A128A110800831203135B
:100E36008C1D1E2F202F0130212F0030F0001308AB
:100E46000319262F282F0130292F0030700403198B
:100E5600192F8C11080083160313871507162830DF
:100E66008312031394002008A4002108A500220879
:100E7600A6002308A70002300310A40DA50DA60D99
:100E8600A70DFF3E031D3F2F2708F3002608F2009B
:100E96002508F1002408F0000130F7003130F60093
:100EA6002D30F5000030F4000A128A1196270A1236
:100EB6008A117008FF3E83160313930008008316F9
:100EC600031386018801831203138801860100300B
:100ED60083120313A3000130A2008630A100A030C4
:100EE600A0000A128A112E270A128A110A128A11E2
:100EF60003270A128A1133300A128A110E270A12A0
:100F06008A11063083120313AA001330A900AD30EC
:100F1600A800A80B8C2FA90B8C2FAA0B8C2F6A2F3D
:100F26000A128A1100280030FC000030FB00003055
:100F3600FA000030F9007308720471047004031992
:100F4600A52FA62FF32FFD01FD0AB62F0130F800BD
:100F56000310F00DF10DF20DF30DF80BAB2F013070
:100F6600FF007F08FD07F31FB92FBA2FA92F013005
:100F7600F8000310F90DFA0DFB0DFC0DF80BBC2F54
:100F860073087702031DD12F72087602031DD12F35
:100F960071087502031DD12F70087402031CD42F2B
:100FA600D52FE42F7008F4027108031C710FF502A7
:100FB6007208031C720FF6027308031C730FF70204
:100FC600791401300310F30CF20CF10CF00CFF3E17
:100FD600031DE52F0130FD02031DF22FF32FBA2F5B
:100FE6007C08F3007B08F2007A08F1007908F0002B
:0A0FF600080083010A128A11622F1D
:02400E007A3FF7
:00000001FF
