:060000000A128A11F02F24
:100EF200FE34FE34831203138C1D802F812F7B2F2F
:100F02008C1108008316031311140A128A117B270D
:100F12000A128A110800F00070088312031393006A
:100F22000A128A117B270A128A1183160313111BD4
:100F32009B2F9C2F8D2F0800831603130716071A69
:100F4200A32FA72F831603138715AA2F8316031324
:100F520087112830831203139400F9308316031388
:100F620093000800831603138113860188018312FC
:100F7200031388010A128A119D270A128A11FF306F
:100F82008312031386000A128A1183270A128A1116
:100F920030300A128A118C270A128A110D30F3009E
:100FA200AF30F200B630F100F10BD52FF20BD52F96
:100FB200F30BD52F00008312031386010D30F300CB
:100FC200AF30F200B630F100F10BE52FF20BE52F56
:100FD200F30BE52F0000C02F0A128A1100280A1213
:100FE2008A1179270A128A11F4000A128A117A27C1
:0E0FF2000A128A11F50083010A128A11B32F28
:02400E007A3FF7
:00000001FF
