:100000000A128A11F62FFF1B0D2883137F188317FE
:100010000008840A0319FF0A080000308A00040857
:10002000840A82070034013400340A340034643412
:100030000034E834033410342734463472346F34D7
:100040006D34203441346E34743475346E34653418
:1000500073340034483465346C346C346F34203479
:1000600057346F3472346C3464340034253464345F
:0200700000345A
:100646008130831203139F008030831603139F00AB
:1006560008000A128A113E230A128A11831603130E
:10066600111408000A128A113E230A128A118316EF
:10067600031311150800831603131419432B442B77
:100686003E2B11081F39031D492B4A2B3E2B080010
:10069600F0000A128A113E230A128A117008831288
:1006A600031393000A128A113E230A128A110800C4
:1006B600632BA917722BC030A9040030AA04722B31
:1006C600831203132808003A03196A2B722B270892
:1006D600003A03195C2B013A03195E2B722B290889
:1006E6000A128A1190240A128A11080080300A120E
:1006F6008A1190240A128A11FB01FC0120300A1289
:100706008A11CF240A128A110130FB070318FC0A4A
:100716000030FC077C08803AFF0080307F02031D12
:10072600962B46307B02031C992B9A2B812B0800B3
:10073600B02B7C08FF007B0884000A128A11032074
:100746000A128A110A128A11CF240A128A1101305A
:10075600FB070318FC0A0030FC077C08831203130E
:10076600FF007B0884000A128A1103200A128A11EC
:10077600003A031DBF2BC02B9C2B08007108803A42
:10078600FF0080307F02031DCA2B08307002031C55
:10079600CD2BCE2BD12BF001F101EE2B83120313BF
:1007A6009F111F129F127008F20002300310F20D03
:1007B600FF3E031DD92B0310720DFF007F089F0417
:1007C6001F151F19E72BE82BE42B1E08F1008316D3
:1007D60003131E08F00008007108F5007507FE39BE
:1007E600F60076080A128A114B230A128A11F701BB
:1007F600F8010F2C77087207F5007508840083133B
:1008060000080A128A114B230A128A110130F707CF
:100816000318F80A0030F8077808803AF5007408DB
:10082600803A7502031D192C73087702031C1C2CD1
:100836001D2CFD2B08002830831203139400831609
:10084600031391019401831203132008A4002108C5
:10085600A5002208A6002308A70002300310A40D55
:10086600A50DA60DA70DFF3E031D312C2708F3008D
:100876002608F2002508F1002408F0000130F700F0
:100886003130F6002D30F5000030F4000A128A11DE
:1008960052250A128A117008FF3E8316031393002D
:1008A6008715071608007708780403195B2C5C2C5B
:1008B6008B2CFB01FB0A6A2C01300310F70DF80D97
:1008C600FF3E031D602C0130FF007F08FB07F81F69
:1008D6006D2C6E2C5F2C78087A02031D742C770819
:1008E6007902031C772C782C7E2C7708F90278087D
:1008F600031CFA03FA0201300310F80CF70CFF3E52
:10090600031D7F2C0130FB02031D8A2C8B2C6E2CC1
:100916007A08F8007908F700080083120313A40088
:100926002408F039A5002408F90003300310F90D56
:10093600FF3E031D992C0310790DF039A6002508FA
:100946000C38A00025080838A10026080C38A2009B
:1009560026080838A3000A128A112C230A128A11C3
:100966002730F1002030F2000430F3000030F400AC
:1009760000300A128A11EF230A128A110A128A110A
:1009860035230A128A110730FA007D30F900F90B77
:10099600CA2CFA0BCA2C080083120313A4002408DD
:1009A600F039A5002408F90003300310F90DFF3EC5
:1009B600031DD82C0310790DF039A60025080D3833
:1009C600A00025080938A10026080D38A20026082F
:1009D6000938A3000A128A112C230A128A11273019
:1009E600F1002030F2000430F3000030F400003053
:1009F6000A128A11EF230A128A110A128A11352362
:100A06000A128A110730FA007D30F900F90B092D18
:100A1600FA0B092D0800F401F50170087104031999
:100A2600152D162D4D2DF601F60A242D0130031035
:100A3600F00DF10DFF3E031D1A2D0130FF007F085A
:100A4600F607F11F272D282D192D01300310F40D5F
:100A5600F50DFF3E031D292D71087302031D352D6B
:100A660070087202031C382D392D402D7008F202D1
:100A76007108031CF303F302741401300310F10C24
:100A8600F00CFF3E031D412D0130F602031D4C2DD7
:100A96004D2D282D7508F1007408F000080000306F
:100AA600FC000030FB000030FA000030F90073084B
:100AB6007204710470040319612D622DAF2DFD01BE
:100AC600FD0A722D0130F8000310F00DF10DF20D44
:100AD600F30DF80B672D0130FF007F08FD07F31FAC
:100AE600752D762D652D0130F8000310F90DFA0DE0
:100AF600FB0DFC0DF80B782D73087702031D8D2D69
:100B060072087602031D8D2D71087502031D8D2D49
:100B160070087402031C902D912DA02D7008F4020C
:100B26007108031C710FF5027208031C720FF6029E
:100B36007308031C730FF702791401300310F30CCA
:100B4600F20CF10CF00CFF3E031DA12D0130FD024D
:100B5600031DAE2DAF2D762D7C08F3007B08F20029
:100B66007A08F1007908F00008000230FD004530EF
:100B7600FC00A930FB00FB0BBE2DFC0BBE2DFD0BB4
:100B8600BE2DC52D30300A128A1190240A128A1100
:100B96002130FC007630FB00FB0BCF2DFC0BCF2D5C
:100BA600000030300A128A1190240A128A11073086
:100BB600FC007D30FB00FB0BDE2DFC0BDE2D303008
:100BC6000A128A1190240A128A114130FC00EE3072
:100BD600FB00FB0BEC2DFC0BEC2D000020300A1269
:100BE6008A1190240A128A114130FC00EE30FB0073
:100BF600FB0BFB2DFC0BFB2D000028300A128A1183
:100C060090240A128A110730FC007D30FB00FB0B92
:100C16000A2EFC0B0A2E08300A128A1190240A1298
:100C26008A110730FC007D30FB00FB0B182EFC0BF5
:100C3600182E01300A128A1190240A128A110730DE
:100C4600FC007D30FB00FB0B262EFC0B262E07300E
:100C5600FC007D30FB00FB0B2E2EFC0B2E2E0630EF
:100C66000A128A1190240A128A110730FC007D307C
:100C7600FB00FB0B3C2EFC0B3C2E0C300A128A119F
:100C860090240A128A110800FF3083160313850088
:100C96008601880183120313880186010030A300B0
:100CA6000130A2008630A100A030A0000A128A11ED
:100CB6001E240A128A110A128A1123230A128A1181
:100CC6000A128A11B8250A128A111830FB008030E0
:100CD600FC000A128A119B230A128A1133308312EE
:100CE6000313AF00BB30AE00DF30AD00AD0B792E85
:100CF600AE0B792EAF0B792E013083120313A700AA
:100D06000030A8000030A900AA000A128A115B234D
:100D16000A128A110B30FB008030FC000A128A117D
:100D26009B230A128A110A128A1179230A128A113E
:100D36000030F000F1000A128A11C1230A128A114A
:100D4600710883120313BB007008BA0007308312C0
:100D56000313AE007C30AD00AD0BAF2EAE0BAF2E45
:100D660000000130F0000030F1000A128A11C123A0
:100D76000A128A11710883120313B9007008B800A9
:100D86002430A0003B08A2003A08A10034300A1221
:100D96008A111C270A128A11243083120313A00019
:100DA6003908A2003808A10030300A128A111C271F
:100DB6000A128A11003083120313A700A80000301C
:100DC600A900AA000A128A115B230A128A1134307A
:100DD600FB000030FC000A128A119B230A128A11BA
:100DE600013083120313A7000030A8000030A900C9
:100DF600AA000A128A115B230A128A113430FB00F8
:100E06000030FC000A128A119B230A128A1107304D
:100E160083120313AF005830AE005930AD00AD0B4E
:100E2600122FAE0B122FAF0B122F962E0A128A110B
:100E3600002883120313AB002130A600E12F2530D2
:100E46002C060319272F282F322F2B0884002C0855
:100E5600831380000130FF007F08AB07E12FA70155
:100E66000130A007FF30200784000A128A110D20E6
:100E76000A128A11AC00A300A4012408003A03193F
:100E8600452FE12F2308003A0319F12F643A03197D
:100E9600502F0D3A0319502FE12F26088400831393
:100EA6000008A900840A0008AA000230FF007F0893
:100EB600A607AA1F5F2F602F692F0330FF007F0848
:100EC600A704A909AA09A90A0319AA0AAC01AC0A26
:100ED6002C08A3002307013E84000A128A110D2064
:100EE6000A128A11A4000A128A110D200A128A1106
:100EF600A50025082A02031D822F240829020318AB
:100F0600852F862F872F912F0130FF007F08AC0792
:100F160005302C06031D902F912F6B2F27080339C0
:100F26000319962F972FA02F2B0884002D3083139B
:100F360080000130FF007F08AB072C08A800D82FDF
:100F46000A30F7000030F8002808A3002307013E06
:100F560084000A128A110D200A128A11F0000A1260
:100F66008A110D200A128A11F1002A08F3002908B5
:100F7600F2000A128A110E250A128A117108FA0065
:100F86007008F9000A128A1156240A128A11770883
:100F9600303E83120313AC002B0884002C08831305
:100FA60080000130FF007F08AB07FF30FF007F089D
:100FB600A807280A031DE02FE12FA32F0130A00761
:100FC600FF30200784000A128A110D200A128A11A6
:100FD600AC002C08031DF02FF12F222F2B088400C4
:100FE60083138001080083120313B801B901BA0103
:0A0FF600BB0183010A128A11472E85
:02400E007A3FF7
:00000001FF
