:100000000A128A11F62FFF1B0D2883137F188317FE
:100010000008840A0319FF0A080000308A00040857
:10002000840A82070034013400340A340034643412
:100030000034E83403341034273441344334453435
:100040004C34453452344F344D34453454345234A6
:100050004F34003441346E34643420344D346134D0
:1000600074347A34003441346E34743475346E34FC
:0C007000653473340034253464340034EB
:1005EE008130831203139F008030831603139F0004
:1005FE0008000A128A1112230A128A118316031393
:10060E00111408000A128A1112230A128A11831673
:10061E00031311150800831603131419172B182B27
:10062E00122B11081F39031D1D2B1E2B122B080018
:10063E00F0000A128A1112230A128A11700883120C
:10064E00031393000A128A1112230A128A11080048
:10065E00372BA917462BC030A9040030AA04462B0D
:10066E00831203132808003A03193E2B462B270842
:10067E00003A0319302B013A0319322B462B290865
:10068E000A128A11A3240A128A11080080300A1253
:10069E008A11A3240A128A11FB01FC0120300A12CE
:1006AE008A1164240A128A110130FB070318FC0A0E
:1006BE000030FC077C08803AFF0080307F02031D6B
:1006CE006A2B46307B02031C6D2B6E2B552B0800BC
:1006DE00842B7C08FF007B0884000A128A110320F9
:1006EE000A128A110A128A1164240A128A1101301E
:1006FE00FB070318FC0A0030FC077C088312031367
:10070E00FF007B0884000A128A1103200A128A1144
:10071E00003A031D932B942B702B08007108803A1E
:10072E00FF0080307F02031D9E2B08307002031CD9
:10073E00A12BA22BA52BF001F101C22B83120313C7
:10074E009F111F129F127008F20002300310F20D5B
:10075E00FF3E031DAD2B0310720DFF007F089F049B
:10076E001F151F19BB2BBC2BB82B1E08F1008316AF
:10077E0003131E08F00008007108F5007507FE3916
:10078E00F60076080A128A111F230A128A11F7013F
:10079E00F801E32B77087207F500750884008313C0
:1007AE0000080A128A111F230A128A110130F70754
:1007BE000318F80A0030F8077808803AF500740834
:1007CE00803A7502031DED2B73087702031CF02B84
:1007DE00F12BD12B080028308312031394008316BB
:1007EE00031391019401831203132008A40021081E
:1007FE00A5002208A6002308A70002300310A40DAE
:10080E00A50DA60DA70DFF3E031D052C2708F30011
:10081E002608F2002508F1002408F0000130F70048
:10082E003130F6002D30F5000030F4000A128A1136
:10083E0027250A128A117008FF3E831603139300B0
:10084E008715071608007708780403192F2C302C0B
:10085E005F2CFB01FB0A3E2C01300310F70DF80D47
:10086E00FF3E031D342C0130FF007F08FB07F81FED
:10087E00412C422C332C78087A02031D482C770821
:10088E007902031C4B2C4C2C522C7708F902780859
:10089E00031CFA03FA0201300310F80CF70CFF3EAA
:1008AE00031D532C0130FB02031D5E2C5F2C422CCA
:1008BE007A08F8007908F700080083120313A400E1
:1008CE002408F039A5002408F90003300310F90DAF
:1008DE00FF3E031D6D2C0310790DF039A60025087F
:1008EE000D38A00025080938A10026080D38A200F1
:1008FE0026080938A3000A128A1100230A128A1147
:10090E002730F1002030F2000430F3000030F40004
:10091E0000300A128A11C3230A128A110A128A118E
:10092E0009230A128A110730FA007D30F900F90BFB
:10093E009E2CFA0B9E2C080083120313A40024088D
:10094E00F039A5002408F90003300310F90DFF3E1D
:10095E00031DAC2C0310790DF039A60025080C38B8
:10096E00A00025080838A10026080C38A200260889
:10097E000838A3000A128A1100230A128A1127309E
:10098E00F1002030F2000430F3000030F4000030AB
:10099E000A128A11C3230A128A110A128A11092312
:1009AE000A128A112130FA007630F900F90BDD2C8B
:1009BE00FA0BDD2C00000800F401F501700871043B
:1009CE000319EA2CEB2C222DF601F60AF92C013034
:1009DE000310F00DF10DFF3E031DEF2C0130FF0053
:1009EE007F08F607F11FFC2CFD2CEE2C01300310B6
:1009FE00F40DF50DFF3E031DFE2C71087302031D51
:100A0E000A2D70087202031C0D2D0E2D152D700867
:100A1E00F2027108031CF303F30274140130031085
:100A2E00F10CF00CFF3E031D162D0130F602031DD6
:100A3E00212D222DFD2C7508F1007408F000080000
:100A4E000030FC000030FB000030FA000030F900EE
:100A5E0073087204710470040319362D372D842D1A
:100A6E00FD01FD0A472D0130F8000310F00DF10DC8
:100A7E00F20DF30DF80B3C2D0130FF007F08FD0742
:100A8E00F31F4A2D4B2D3A2D0130F8000310F90DAE
:100A9E00FA0DFB0DFC0DF80B4D2D73087702031D9F
:100AAE00622D72087602031D622D71087502031DF8
:100ABE00622D70087402031C652D662D752D70084D
:100ACE00F4027108031C710FF5027208031C720FF9
:100ADE00F6027308031C730FF7027914013003102A
:100AEE00F30CF20CF10CF00CFF3E031D762D0130D1
:100AFE00FD02031D832D842D4B2D7C08F3007B08F6
:100B0E00F2007A08F1007908F00008000230FD00CA
:100B1E004530FC00A930FB00FB0B932DFC0B932DF5
:100B2E00FD0B932D9A2D30300A128A11A3240A122E
:100B3E008A112130FC007630FB00FB0BA42DFC0B40
:100B4E00A42D000030300A128A11A3240A128A1131
:100B5E000730FC007D30FB00FB0BB32DFC0BB32DDF
:100B6E0030300A128A11A3240A128A114130FC0075
:100B7E00EE30FB00FB0BC12DFC0BC12D0000203015
:100B8E000A128A11A3240A128A114130FC00EE3097
:100B9E00FB00FB0BD02DFC0BD02D000028300A12D1
:100BAE008A11A3240A128A110730FC007D30FB0043
:100BBE00FB0BDF2DFC0BDF2D08300A128A11A3244C
:100BCE000A128A110730FC007D30FB00FB0BED2D65
:100BDE00FC0BED2D01300A128A11A3240A128A1180
:100BEE000730FC007D30FB00FB0BFB2DFC0BFB2DBF
:100BFE000730FC007D30FB00FB0B032EFC0B032E9D
:100C0E0006300A128A11A3240A128A110730FC0038
:100C1E007D30FB00FB0B112EFC0B112E0C300A123B
:100C2E008A11A3240A128A11080083120313AB003F
:100C3E002130A600E12E25302C060319272E282E52
:100C4E00322E2B0884002C08831380000130FF0005
:100C5E007F08AB07E12EA7010130A007FF30200768
:100C6E0084000A128A110D200A128A11AC00A30008
:100C7E00A4012408003A0319452EE12E2308003A58
:100C8E000319F12E643A0319502E0D3A0319502E02
:100C9E00E12E2608840083130008A900840A0008A8
:100CAE00AA000230FF007F08A607AA1F5F2E602E43
:100CBE00692E0330FF007F08A704A909AA09A90A13
:100CCE000319AA0AAC01AC0A2C08A3002307013EA3
:100CDE0084000A128A110D200A128A11A4000A1227
:100CEE008A110D200A128A11A50025082A02031D59
:100CFE00822E240829020318852E862E872E912EE9
:100D0E000130FF007F08AC0705302C06031D902E26
:100D1E00912E6B2E270803390319962E972EA02E8F
:100D2E002B0884002D30831380000130FF007F08D4
:100D3E00AB072C08A800D82E0A30F7000030F800B8
:100D4E002808A3002307013E84000A128A110D20F1
:100D5E000A128A11F0000A128A110D200A128A1143
:100D6E00F1002A08F3002908F2000A128A11E3247E
:100D7E000A128A117108FA007008F9000A128A1113
:100D8E002A240A128A117708303E83120313AC000C
:100D9E002B0884002C08831380000130FF007F088D
:100DAE00AB07FF30FF007F08A807280A031DE02EBF
:100DBE00E12EA32E0130A007FF30200784000A1277
:100DCE008A110D200A128A11AC002C08031DF02E78
:100DDE00F12E222E2B088400831380010800FF3091
:100DEE00831603138500860188018312031388017D
:100DFE0086010030A3000130A2008630A100A03091
:100E0E00A0000A128A11F2230A128A110A128A11FA
:100E1E00F7220A128A110A128A118D250A128A11D4
:100E2E000B30FB008030FC000A128A116F230A126D
:100E3E008A11273083120313AF000D30AE00253018
:100E4E00AD00AD0B282FAE0B282FAF0B282F2F2F59
:100E5E000A128A114D230A128A11003083120313CB
:100E6E00A700A8000030A900AA000A128A112F2399
:100E7E000A128A112130FB008030FC000A128A11FE
:100E8E006F230A128A11013083120313A700003058
:100E9E00A8000030A900AA000A128A112F230A12F4
:100EAE008A111830FB008030FC000A128A116F2361
:100EBE000A128A11273083120313AF000D30AE00D1
:100ECE002530AD00AD0B692FAE0B692FAF0B692F1F
:100EDE00702F0A128A114D230A128A110030F00067
:100EEE00F1000A128A1195230A128A1171088312CF
:100EFE000313BB007008BA000130F0000030F1009F
:100F0E000A128A1195230A128A1171088312031389
:100F1E00B9007008B8002930A0003B08A2003A08BA
:100F2E00A10030300A128A111C260A128A112930A9
:100F3E0083120313A0003908A2003808A100343030
:100F4E000A128A111C260A128A1100308312031308
:100F5E00A700A8000030A900AA000A128A112F23A8
:100F6E000A128A113030FB000030FC000A128A117E
:100F7E006F230A128A11073083120313AE007C30DE
:100F8E00AD00AD0BC82FAE0BC82F00000130831281
:100F9E000313A7000030A8000030A900AA000A120F
:100FAE008A112F230A128A113430FB000030FC0004
:100FBE000A128A116F230A128A1106308312031342
:100FCE00AF001330AE00AD30AD00AD0BEC2FAE0B5D
:100FDE00EC2FAF0BEC2F702F0A128A110028831200
:100FEE000313B801B901BA01BB0183010A128A11B8
:020FFE00F62ECD
:02400E007A3FF7
:00000001FF
