:060000000A128A11FC2F18
:100DE4000A128A11FB260A128A118316031311149C
:100DF40008008316031311081F39031D022F032F44
:100E0400FB2E1419062F072FFB2E08000A128A1135
:100E1400FB260A128A1170088312031393008C1D97
:100E2400142F152F112F8C1108002830831203134F
:100E34009400831603139101831203132008A40062
:100E44002108A5002208A6002308A70002300310E9
:100E5400A40DA50DA60DA70DFF3E031D292F2708E0
:100E6400F3002608F2002508F1002408F000013000
:100E7400F7003130F6002D30F5000030F4000A128E
:100E84008A1196270A128A117008FF3E83160313EB
:100E94009300940187110712080083160313860137
:100EA4000D3083120313AA00AF30A900B530A80097
:100EB400A80B5A2FA90B5A2FAA0B5A2F612FFF30B8
:100EC4008312031386000030A3000130A200863091
:100ED400A100A030A0000A128A1117270A128A1151
:100EE4000A128A11F2260A128A11A030F000003088
:100EF400F1000A128A1108270A128A110D3083128E
:100F04000313AA00AF30A900B530A800A80B882F9E
:100F1400A90B882FAA0B882F8F2F83120313860106
:100F2400522F0A128A1100280030FC000030FB0006
:100F34000030FA000030F900730872047104700480
:100F44000319A52FA62FF32FFD01FD0AB62F01309B
:100F5400F8000310F00DF10DF20DF30DF80BAB2FAB
:100F64000130FF007F08FD07F31FB92FBA2FA92F07
:100F74000130F8000310F90DFA0DFB0DFC0DF80B10
:100F8400BC2F73087702031DD12F72087602031D4C
:100F9400D12F71087502031DD12F70087402031C30
:100FA400D42FD52FE42F7008F4027108031C710F9D
:100FB400F5027208031C720FF6027308031C730F08
:100FC400F702791401300310F30CF20CF10CF00C5D
:100FD400FF3E031DE52F0130FD02031DF22FF32F09
:100FE400BA2F7C08F3007B08F2007A08F100790834
:0C0FF400F000080083010A128A114F2F40
:02400E00323F3F
:00000001FF
