:100000000A128A11F82F00308A000408840A820735
:100010000034463472346F346D34203441346E34DD
:10002000743475346E346534733400344834653454
:100030006C346C346F34203457346F3472346C3415
:0400400064340034F0
:10091A008130831203139F008030831603139F00D4
:10092A0008000A128A11A8240A128A1183160313CC
:10093A00111408000A128A11A8240A128A118316AD
:10094A00031311150800831603131419AD2CAE2CCA
:10095A00A82C11081F39031DB32CB42CA82C08008D
:10096A00F0000A128A11A8240A128A117008831246
:10097A00031393000A128A11A8240A128A11080082
:10098A00CD2CA917DC2CC030A9040030AA04DC2C19
:10099A00831203132808003A0319D42CDC2C2708E5
:1009AA00003A0319C62C013A0319C82CDC2C290871
:1009BA000A128A118B250A128A110800FC00F52CEA
:1009CA007C0884000A128A1103200A128A110A1268
:1009DA008A11CF250A128A110130FF007F08FC070D
:1009EA007C0884000A128A1103200A128A11003A2A
:1009FA00031D002D012DE52C080080300A128A11F2
:100A0A008B250A128A11FC01FD0120300A128A1173
:100A1A00CF250A128A110130FC070318FD0A00309B
:100A2A00FD077D08803AFF0080307F02031D1F2DDD
:100A3A0046307C02031C222D232D0A2D0800710842
:100A4A00F5007507FE39F60076080A128A11B524F0
:100A5A000A128A11F701F801442D77087207F50086
:100A6A0075088400831300080A128A11B5240A1231
:100A7A008A110130F7070318F80A0030F8077808D6
:100A8A00803AF5007408803A7502031D4E2D7308EA
:100A9A007702031C512D522D322D08002830831263
:100AAA000313940083160313910194018312031311
:100ABA002008A4002108A5002208A6002308A700F0
:100ACA0002300310A40DA50DA60DA70DFF3E031DB0
:100ADA00662D2708F3002608F2002508F1002408ED
:100AEA00F0000130F7003130F6002D30F50000300B
:100AFA00F4000A128A1113260A128A117008FF3E9C
:100B0A00831603139300871507160800831203132D
:100B1A00A4002408F039A5002408F90003300310C2
:100B2A00F90DFF3E031D942D0310790DF039A6002F
:100B3A0025080C38A00025080838A10026080C381A
:100B4A00A20026080838A3000A128A1196240A125B
:100B5A008A112730F1002030F2000430F30000300F
:100B6A00F40000300A128A1124250A128A110A1284
:100B7A008A119F240A128A110230FB004530FA00BA
:100B8A00A930F900F90BC72DFA0BC72DFB0BC72D9E
:100B9A00CE2D080083120313A4002408F039A500FF
:100BAA002408F90003300310F90DFF3E031DD82D68
:100BBA000310790DF039A60025080D38A000250884
:100BCA000938A10026080D38A20026080938A30012
:100BDA000A128A1196240A128A112730F10020304B
:100BEA00F2000430F3000030F40000300A128A11D7
:100BFA0024250A128A110A128A119F240A128A11BA
:100C0A000230FB004530FA00A930F900F90B0B2E2F
:100C1A00FA0B0B2EFB0B0B2E122E08000030FC00D9
:100C2A000030FB000030FA000030F900730872044B
:100C3A00710470040319222E232E702EFD01FD0A61
:100C4A00332E0130F8000310F00DF10DF20DF30D03
:100C5A00F80B282E0130FF007F08FD07F31F362E00
:100C6A00372E262E0130F8000310F90DFA0DFB0D70
:100C7A00FC0DF80B392E73087702031D4E2E7208ED
:100C8A007602031D4E2E71087502031D4E2E700842
:100C9A007402031C512E522E612E7008F402710840
:100CAA00031C710FF5027208031C720FF602730817
:100CBA00031C730FF702791401300310F30CF20CC2
:100CCA00F10CF00CFF3E031D622E0130FD02031DE4
:100CDA006F2E702E372E7C08F3007B08F2007A08FC
:100CEA00F1007908F0000800023083120313A9000A
:100CFA004530A800A930A700A70B812EA80B812E8A
:100D0A00A90B812E30300A128A118B250A128A11F8
:100D1A00213083120313A8007530A700A70B932E66
:100D2A00A80B932E982E30300A128A118B250A129C
:100D3A008A11073083120313A8007C30A700A70B7F
:100D4A00A42EA80BA42E000030300A128A118B257B
:100D5A000A128A11413083120313A800ED30A7004A
:100D6A00A70BB52EA80BB52EBA2E20300A128A115F
:100D7A008B250A128A11413083120313A800ED3021
:100D8A00A700A70BC62EA80BC62ECB2E28300A12F8
:100D9A008A118B250A128A11073083120313A800BD
:100DAA007C30A700A70BD72EA80BD72E000008303F
:100DBA000A128A118B250A128A1107308312031329
:100DCA00A8007C30A700A70BE82EA80BE82E00008D
:100DDA0001300A128A118B250A128A1107308312EE
:100DEA000313A8007C30A700A70BF92EA80BF92E35
:100DFA000000073083120313A8007C30A700A70B5A
:100E0A00042FA80B042F000006300A128A118B2522
:100E1A000A128A11073083120313A8007C30A70034
:100E2A00A70B152FA80B152F00000C300A128A11D8
:100E3A008B250A128A110800FF30831603138500D6
:100E4A008601880183120313880186010030A300FA
:100E5A000130A2008630A100A030A0000A128A1137
:100E6A0053250A128A110A128A118D240A128A112A
:100E7A00333083120313AD00BB30AC00DF30AB005C
:100E8A00AB0B452FAC0B452FAD0B452F0A128A1120
:100E9A0079260A128A110E300A128A11E3240A12DA
:100EAA008A11333083120313AD00BB30AC00DF303C
:100EBA00AB00AB0B5E2FAC0B5E2FAD0B5E2F013080
:100ECA0083120313A7000030A8000030A900AA006B
:100EDA000A128A11C5240A128A1101300A128A11C9
:100EEA00E3240A128A110A128A1102250A128A11A5
:100EFA0083120313AE01AF01B001B10183120313D0
:100F0A00B201B301831203132F08A8002E08A70009
:100F1A003108AA003008A9000A128A11C5240A1247
:100F2A008A11831203133208303E0A128A11CF251E
:100F3A000A128A11013083120313B0070318B10A87
:100F4A000030B1073108803AFF0080307F02031D6C
:100F5A00B02F10303002031CB32FB42FBE2F013034
:100F6A0083120313AE070318AF0A0030AF07B001AC
:100F7A00B101831203132F08803AFF0080307F02E9
:100F8A00031DC92F02302E02031CCC2FCD2FD12FC7
:100F9A0083120313AE01AF01023083120313AD00B3
:100FAA004530AC00A930AB00AB0BD92FAC0BD92F15
:100FBA00AD0BD92F013083120313B2070318B30AFA
:100FCA000030B3073308803AFF0080307F02031DE8
:100FDA00F02F80303202031CF32FF42F872F832F38
:100FEA000A128A11002883120313B401B50183017E
:060FFA000A128A11212FEA
:02400E007A3FF7
:00000001FF
